{
  "_format": "hh-sol-artifact-1",
  "contractName": "Casino489",
  "sourceName": "contracts/Casino489.sol",
  "abi": [
    {
      "inputs": [
        {
          "internalType": "address",
          "name": "",
          "type": "address"
        }
      ],
      "name": "balances",
      "outputs": [
        {
          "internalType": "uint256",
          "name": "",
          "type": "uint256"
        }
      ],
      "stateMutability": "view",
      "type": "function"
    },
    {
      "inputs": [],
      "name": "contractBalance",
      "outputs": [
        {
          "internalType": "uint256",
          "name": "",
          "type": "uint256"
        }
      ],
      "stateMutability": "view",
      "type": "function"
    },
    {
      "inputs": [],
      "name": "deposit",
      "outputs": [],
      "stateMutability": "payable",
      "type": "function"
    },
    {
      "inputs": [
        {
          "internalType": "uint256",
          "name": "amount",
          "type": "uint256"
        },
        {
          "internalType": "uint256",
          "name": "multiplier",
          "type": "uint256"
        }
      ],
      "name": "withdraw",
      "outputs": [],
      "stateMutability": "nonpayable",
      "type": "function"
    }
  ],
  "bytecode": "0x608060405234801561001057600080fd5b5061055f806100206000396000f3fe60806040526004361061003f5760003560e01c806327e235e314610044578063441a3e70146100815780638b7afe2e146100aa578063d0e30db0146100d5575b600080fd5b34801561005057600080fd5b5061006b60048036038101906100669190610306565b6100df565b604051610078919061034c565b60405180910390f35b34801561008d57600080fd5b506100a860048036038101906100a39190610393565b6100f7565b005b3480156100b657600080fd5b506100bf61022d565b6040516100cc919061034c565b60405180910390f35b6100dd610233565b005b60006020528060005260406000206000915090505481565b816000803373ffffffffffffffffffffffffffffffffffffffff1673ffffffffffffffffffffffffffffffffffffffff16815260200190815260200160002060008282546101459190610402565b92505081905550816001600082825461015e9190610402565b92505081905550600081836101739190610436565b90506001548111156101ba576040517f08c379a00000000000000000000000000000000000000000000000000000000081526004016101b1906104d5565b60405180910390fd5b806000803373ffffffffffffffffffffffffffffffffffffffff1673ffffffffffffffffffffffffffffffffffffffff168152602001908152602001600020600082825461020891906104f5565b9250508190555080600160008282546102219190610402565b92505081905550505050565b60015481565b346000803373ffffffffffffffffffffffffffffffffffffffff1673ffffffffffffffffffffffffffffffffffffffff168152602001908152602001600020600082825461028191906104f5565b92505081905550346001600082825461029a91906104f5565b92505081905550565b600080fd5b600073ffffffffffffffffffffffffffffffffffffffff82169050919050565b60006102d3826102a8565b9050919050565b6102e3816102c8565b81146102ee57600080fd5b50565b600081359050610300816102da565b92915050565b60006020828403121561031c5761031b6102a3565b5b600061032a848285016102f1565b91505092915050565b6000819050919050565b61034681610333565b82525050565b6000602082019050610361600083018461033d565b92915050565b61037081610333565b811461037b57600080fd5b50565b60008135905061038d81610367565b92915050565b600080604083850312156103aa576103a96102a3565b5b60006103b88582860161037e565b92505060206103c98582860161037e565b9150509250929050565b7f4e487b7100000000000000000000000000000000000000000000000000000000600052601160045260246000fd5b600061040d82610333565b915061041883610333565b92508282039050818111156104305761042f6103d3565b5b92915050565b600061044182610333565b915061044c83610333565b925082820261045a81610333565b91508282048414831517610471576104706103d3565b5b5092915050565b600082825260208201905092915050565b7f496e73756666696369656e7420636f6e74726163742062616c616e6365000000600082015250565b60006104bf601d83610478565b91506104ca82610489565b602082019050919050565b600060208201905081810360008301526104ee816104b2565b9050919050565b600061050082610333565b915061050b83610333565b9250828201905080821115610523576105226103d3565b5b9291505056fea264697066735822122071abe7c32e44cb7a892494c4d0183a2f982b8da1166d5ed58666d38fce316ab664736f6c63430008120033",
  "linkReferences": {},
  "deployedLinkReferences": {}
}