{
  "_format": "hh-sol-artifact-1",
  "contractName": "Casino489",
  "sourceName": "contracts/Casino489.sol",
  "abi": [
    {
      "inputs": [
        {
          "internalType": "address",
          "name": "",
          "type": "address"
        }
      ],
      "name": "balances",
      "outputs": [
        {
          "internalType": "uint256",
          "name": "",
          "type": "uint256"
        }
      ],
      "stateMutability": "view",
      "type": "function"
    },
    {
      "inputs": [],
      "name": "contractBalance",
      "outputs": [
        {
          "internalType": "uint256",
          "name": "",
          "type": "uint256"
        }
      ],
      "stateMutability": "view",
      "type": "function"
    },
    {
      "inputs": [],
      "name": "deposit",
      "outputs": [],
      "stateMutability": "payable",
      "type": "function"
    },
    {
      "inputs": [
        {
          "internalType": "uint256",
          "name": "amount",
          "type": "uint256"
        },
        {
          "internalType": "uint256",
          "name": "multiplier",
          "type": "uint256"
        }
      ],
      "name": "withdraw",
      "outputs": [],
      "stateMutability": "nonpayable",
      "type": "function"
    }
  ],
  "bytecode": "0x608060405234801561001057600080fd5b506104f1806100206000396000f3fe60806040526004361061003f5760003560e01c806327e235e314610044578063441a3e70146100815780638b7afe2e146100aa578063d0e30db0146100d5575b600080fd5b34801561005057600080fd5b5061006b60048036038101906100669190610298565b6100df565b60405161007891906102de565b60405180910390f35b34801561008d57600080fd5b506100a860048036038101906100a39190610325565b6100f7565b005b3480156100b657600080fd5b506100bf6101bf565b6040516100cc91906102de565b60405180910390f35b6100dd6101c5565b005b60006020528060005260406000206000915090505481565b600081836101059190610394565b905060015481111561014c576040517f08c379a000000000000000000000000000000000000000000000000000000000815260040161014390610433565b60405180910390fd5b806000803373ffffffffffffffffffffffffffffffffffffffff1673ffffffffffffffffffffffffffffffffffffffff168152602001908152602001600020600082825461019a9190610453565b9250508190555080600160008282546101b39190610487565b92505081905550505050565b60015481565b346000803373ffffffffffffffffffffffffffffffffffffffff1673ffffffffffffffffffffffffffffffffffffffff16815260200190815260200160002060008282546102139190610453565b92505081905550346001600082825461022c9190610453565b92505081905550565b600080fd5b600073ffffffffffffffffffffffffffffffffffffffff82169050919050565b60006102658261023a565b9050919050565b6102758161025a565b811461028057600080fd5b50565b6000813590506102928161026c565b92915050565b6000602082840312156102ae576102ad610235565b5b60006102bc84828501610283565b91505092915050565b6000819050919050565b6102d8816102c5565b82525050565b60006020820190506102f360008301846102cf565b92915050565b610302816102c5565b811461030d57600080fd5b50565b60008135905061031f816102f9565b92915050565b6000806040838503121561033c5761033b610235565b5b600061034a85828601610310565b925050602061035b85828601610310565b9150509250929050565b7f4e487b7100000000000000000000000000000000000000000000000000000000600052601160045260246000fd5b600061039f826102c5565b91506103aa836102c5565b92508282026103b8816102c5565b915082820484148315176103cf576103ce610365565b5b5092915050565b600082825260208201905092915050565b7f496e73756666696369656e7420636f6e74726163742062616c616e6365000000600082015250565b600061041d601d836103d6565b9150610428826103e7565b602082019050919050565b6000602082019050818103600083015261044c81610410565b9050919050565b600061045e826102c5565b9150610469836102c5565b925082820190508082111561048157610480610365565b5b92915050565b6000610492826102c5565b915061049d836102c5565b92508282039050818111156104b5576104b4610365565b5b9291505056fea264697066735822122052892417b7e922047112f6e2327bfb9b654429415e58f5f671fe8748bc01527e64736f6c63430008120033",
  "linkReferences": {},
  "deployedLinkReferences": {}
}